:100000000C94E5000C9414010C9414010C9414014C
:100010000C9414010C9414010C9414010C9414010C
:100020000C9414010C9414010C9414010C941401FC
:100030000C9414010C9414010C9414010C941401EC
:100040000C9414010C9414010C9414010C941401DC
:100050000C9414010C9414010C9414010C945E067D
:100060000C9414010C94B3090C94410A0C941401DF
:100070000C9414010C9414010C9414010C941401AC
:100080000C9414010C9414010C9414010C9414019C
:100090000C94F2090C94800A0C9414010C94140131
:1000A0000C9414010C9414010C9414010C9414017C
:1000B0000C9414010C9414010C9414010C9414016C
:1000C0000C9414010C9414010C9414010C9414015C
:1000D0000C9414010C9414010C9414010C9414014C
:1000E0000C9414010C9414010C9414010C94F0025F
:1000F0000C94C7020C9414010C9414010C94D103B9
:100100000C9414010C9414010C9414010C9414011B
:100110000C9414010C9414010C9414010C9414010B
:100120000000000B00090A0007050403000000009E
:1001300000000000000000000000000200000000BD
:100140000000000000000408402004081080108017
:10015000402008020102040810200401022040800F
:10016000012010081002048001400102040405056A
:10017000050505050202020202020606060606063B
:10018000020404040404020704070707070607061D
:10019000050500000000250000002B002E003100A6
:1001A000340000000000000000000000000000001B
:1001B000240000002A002D00300033000000000061
:1001C0000000000000005A06400B11241FBECFEFB4
:1001D000D1E4DEBFCDBF12E0A0E0B2E0E2E2F8E1A0
:1001E00000E00BBF02C007900D92AC33B107D9F706
:1001F00015E0ACE3B2E001C01D92A533B107E1F711
:1002000011E0CAECD1E000E006C022970109FE012E
:100210000BBF0E94020CC63CD10780E00807A9F77B
:100220000E940A090C940F0C0C940000CF93DF93EA
:10023000EC0182E094E00E94850860E072E082E0D8
:1002400094E00E947C084AE050E0BE0182E094E025
:100250000E94040982E094E0DF91CF910C9485081C
:10026000CF93C82F82E094E00E94850869E072E095
:1002700082E094E00E947C084AE050E06C2F70E03D
:1002800082E094E00E94040982E094E0CF910C9413
:10029000850860E08CE492E00E94EA0540E855E2BF
:1002A00060E070E082E094E00E94BF0A60E371E0E9
:1002B0008CE492E00E94EE0566E171E08CE492E04D
:1002C0000E94F30561E082E00E94CF0761E083E0D5
:1002D0000E94CF0761E084E00E94CF0761E085E0E3
:1002E0000E94CF0761E086E00E94CF0761E087E0CF
:1002F0000E94CF0761E088E00E94CF0761E089E0BB
:100300000E94CF0761E08AE00E94CF0761E08BE0A6
:100310000E94CF0761E08CE00E94CF0761E08DE092
:100320000E94CF0761E08EE00E94CF0761E08FE07E
:100330000E94CF0761E080E10E94CF0761E081E188
:100340000E94CF0761E082E10E94CF0761E083E174
:100350000E94CF0761E084E10E94CF0761E085E160
:100360000E94CF0761E086E10E94CF0761E087E14C
:100370000E94CF0761E088E10C94CF078CE492E003
:100380000E94FE0561E68CE492E00E9423068CE464
:1003900092E00E94050664EF71E080E090E00E9428
:1003A000D20661E082E00E94070861E084E00E94DA
:1003B000070861E086E00E94070861E088E00E948B
:1003C000070861E08AE00E94070861E08CE00E9473
:1003D000070861E08EE00E94070861E080E10E946A
:1003E000070861E082E10E94070861E084E10E9461
:1003F000070861E086E10E94070861E088E10E9449
:10040000070860E083E00E94070860E085E00E9442
:10041000070860E087E00E94070860E089E00E942A
:10042000070860E08BE00E94070860E08DE00E9412
:10043000070860E08FE00E94070860E081E10E9409
:10044000070860E083E10E94070860E085E10E9400
:10045000070860E087E10E9407088CE492E00E94B0
:10046000FE0561E68CE492E00E9423068CE492E0B3
:100470000E94050664EF71E080E090E00E94D206E1
:1004800060E082E00E94070860E084E00E940708C4
:1004900060E086E00E94070860E088E00E940708AC
:1004A00060E08AE00E94070860E08CE00E94070894
:1004B00060E08EE00E94070860E080E10E9407088B
:1004C00060E082E10E94070860E084E10E94070882
:1004D00060E086E10E94070860E088E10E9407086A
:1004E00061E083E00E94070861E085E00E94070860
:1004F00061E087E00E94070861E089E00E94070848
:1005000061E08BE00E94070861E08DE00E9407082F
:1005100061E08FE00E94070861E081E10E94070826
:1005200061E083E10E94070861E085E10E9407081D
:1005300061E087E10C9407081F93CF93DF931F922C
:10054000CDB7DEB747E060E886E00E94B104182F1F
:10055000AE014F5F5F4F60914302809141029091E5
:1005600042020E94D90421E0111120E06091410271
:100570007091420249818F770E9404059093420254
:10058000809341020F90DF91CF911F9108951F92A8
:100590000F920FB60F9211240BB60F922F933F9329
:1005A0004F935F936F937F938F939F93AF93BF937B
:1005B000EF93FF935E980E949C02FF91EF91BF9191
:1005C000AF919F918F917F916F915F914F913F91EB
:1005D0002F910F900BBE0F900FBE0F901F9018958C
:1005E0001F920F920FB60F9211240BB60F922F93FA
:1005F0003F934F935F936F937F938F939F93AF93AB
:10060000BF93EF93FF935E9A86E00E94AB048093C2
:100610003405FF91EF91BF91AF919F918F917F91A1
:100620006F915F914F913F912F910F900BBE0F9063
:100630000FBE0F901F901895909342028093410235
:1006400060934302809139018E7F809339018091BC
:1006500039018D7F8093390180E28A95F1F780918D
:10066000390181608093390160E08EE00E94A50429
:100670008FE00E94AB0428E040E06FE182E00E943E
:10068000BF0487EF97E00197F1F700C0000040E05A
:100690006FE181E00E94B104883019F081E00E948E
:1006A000FC0421E045E060E284E00E94BF046CE4C9
:1006B0008EE00E94A50410923F021092400208951D
:1006C000FF920F931F93CF93DF9300D01F92CDB76C
:1006D000DEB7182F823061F028F48823D1F0813002
:1006E000A9F408C0843041F048F0853079F408C09E
:1006F00086E010C089E00EC086E10CC089E10AC026
:1007000088E08A8383E08B8301E007C084E00E9455
:10071000FC0488E08A838B8300E080913F0285306F
:1007200069F4011135C0809139018D7F80933901C1
:100730008FEC97E00197F1F700C000002B8140E0BB
:100740006FE182E00E94BF048DE8F82E40E06FE187
:1007500081E00E94B10489839A818981981305C040
:100760009A818981981308C00AC09AEA9A95F1F78C
:1007700000C0FA9459F7F4CF81E00E94FC040023F2
:1007800029F08091390182608093390110933F02F2
:100790000F900F900F90DF91CF911F910F91FF90CD
:1007A00008951F920F920FB60F9211240BB60F925D
:1007B0002F933F934F935F936F937F938F939F9369
:1007C000AF93BF93EF93FF935D9880913F02813089
:1007D00019F480E090E011C08330A9F445E060EEA8
:1007E00082E00E94B104863030F4E82FF0E0EF5E42
:1007F000FD4F808101C083E090E00E940D05809153
:1008000040020E946003FF91EF91BF91AF919F91D1
:100810008F917F916F915F914F913F912F910F90A9
:100820000BBE0F900FBE0F901F9018950F931F9344
:10083000CF93DF93162F072F8430B1F150F481301E
:1008400009F473C090F08230F1F0833009F066C093
:1008500039C0863009F445C008F43DC0873009F43A
:100860004BC0883009F05AC052C0862F8B5080315F
:1008700008F054C0262F40E06FE188E00E94BF04DA
:1008800010933C0252C0E62FEF5EE53108F046C0FF
:1008900060933D02F0E0E95EFD4FE081F0E02491DD
:1008A00040E06FE085E008C06430C0F560933E0230
:1008B000262F45E060E688E0DF91CF911F910F91F0
:1008C0000C94BF0460934002862FDF91CF911F915B
:1008D0000F910C94600382E20E94A504602F83E2D2
:1008E00005C080E20E94A504602F81E2DF91CF91D4
:1008F0001F910F910C94A504C62FD72F14E2699174
:10090000812F0E94A5041F5F1C32C9F70EC0862FDD
:10091000DF91CF911F910F910C94F80482E0DF9149
:10092000CF911F910F910C94FC04DF91CF911F91F7
:100930000F9108950E94CF04E9E3F1E08081826085
:10094000808380818D7F80830895E82FF0E0E05CD4
:10095000FE4F60830895E82FF0E0E05CFE4F808159
:100960000895E82FF0E0E05CFE4F80816823862F39
:1009700090E002C0959587954A95E2F70895E82F93
:10098000F0E0E05CFE4F042E01C0220F0A94EAF76B
:100990002623609580816823262B2083089587FD78
:1009A0008FE780938001482F50E081E891E00C941C
:1009B000060CFF920F931F93CF93DF93EA01F09001
:1009C0007B01462FF61608F44F2D042F10E050E05F
:1009D00060E871E00E94060CF801E058FE4F80814B
:1009E00088838F2DDF91CF911F910F91FF900895F4
:1009F000833309F08FEF0895E0914A02F0914B02A2
:100A0000309709F009940895E0914602F091470269
:100A1000309709F00994CB010895E0914402F091D8
:100A20004502309709F00994089590934702809306
:100A300046020895909345028093440208952091C0
:100A40005302222329F0E0914D02F0914E020995C4
:100A50001092510208950F931F93CF93DF93409309
:100A6000550290915402911140C0A091D602883055
:100A700020F4B0E0162FFB0133C00A2F10E0C7E0CE
:100A800090E0029715C0E091D702F0E09F012F5F40
:100A90003F4F2F7733272017310781F1460F571F1C
:100AA000DA013C91E852FD4F30832093D702CF5FAB
:100AB0004C2F50E04817590734F320C04091D7021B
:100AC00050E09A012F5F3F4F2F7733272A173B07BC
:100AD000A9F0919148525D4FEA0198832093D70283
:100AE0009E2F911B981750F309C0E0914F02F0918F
:100AF0005002DF91CF911F910F91099428ED32E0C0
:100B0000C901DF91CF911F910F910895CF93DF938A
:100B100000D0CDB7DEB78FEF9FEF9A8389838091A6
:100B20005102882349F089819A819C012150310921
:100B30003A832983892B99F70F900F90DF91CF91FA
:100B4000089510924B0210924A021092490210929C
:100B500048028BE295E00E9415058FE195E00C9428
:100B60001A051F93CF93DF93162FEA016FE788E5ED
:100B700093E00E941C03209749F0E7E5F2E0899199
:100B8000819382E0EE35F807D1F714C081E08093BD
:100B9000570280E8809358021092590281E18093B5
:100BA0005A0282E280935B0283E380935C0284E4D6
:100BB00080935D02612F70E080E00E94160482E065
:100BC0000E946003569A559A5E985D98DF91CF9186
:100BD0001F91089540E050E00C94B10570934B02D2
:100BE00060934A02089570934E0260934D0281E033
:100BF000672B09F480E080935302089581E080938D
:100C0000520287E08093560208951092520280911A
:100C100056028E5F809356020E94860581E0809383
:100C200051020E9460035D9A40E067E572E08091A6
:100C300056020E949A040E94860582E00E94600388
:100C4000109251020895209152022223B9F020916E
:100C500056022D3770F5E22FF0E0E95AFD4F608320
:100C60002F5F209356022D3721F50E94050681E063
:100C70008093520287E080935602089560935E024B
:100C800010925F02109260020E94860581E08093BC
:100C900051020E9460035D9A40E067E572E08AE0DD
:100CA0000E949A040E94860582E00E9460031092CE
:100CB000510208958CE492E00C94A1051F920F92CA
:100CC0000FB60F9211242F933F938F939F93AF935F
:100CD000BF938091D7039091D803A091D903B0918D
:100CE000DA033091DF03232F2D5F2D3720F4019697
:100CF000A11DB11D05C0232F2A570296A11DB11DAC
:100D00002093DF038093D7039093D803A093D90354
:100D1000B093DA038091DB039091DC03A091DD03B3
:100D2000B091DE030196A11DB11D8093DB0390936A
:100D3000DC03A093DD03B093DE03BF91AF919F91DD
:100D40008F913F912F910F900FBE0F901F9018958C
:100D50000F931F939FB7F8940091DB031091DC036E
:100D60002091DD033091DE0386B5A89B06C08F3F3E
:100D700021F00F5F1F4F2F4F3F4F9FBF322F212F6B
:100D8000102F0027080F111D211D311D42E0000FFB
:100D9000111F221F331F4A95D1F7B801C9011F91B6
:100DA0000F910895CF92DF92EF92FF92CF93DF934E
:100DB0006B017C010E94A806EB010EC00E94A806F0
:100DC0006C1B7D0B683E734038F081E0C81AD10877
:100DD000E108F108C851DC4FC114D104E104F10469
:100DE00069F7DF91CF91FF90EF90DF90CF9008955A
:100DF000789484B5826084BD84B5816084BD85B5F6
:100E0000826085BD85B5816085BDEEE6F0E08081BC
:100E100081608083E1E8F0E01082808182608083DD
:100E2000808181608083E0E8F0E080818160808360
:100E3000E1EBF0E0808184608083E0EBF0E0808192
:100E400081608083E1E9F0E080818260808380813D
:100E500081608083E0E9F0E0808181608083E1EA65
:100E6000F0E0808182608083808181608083E0EA1D
:100E7000F0E0808181608083E1E2F1E08081826046
:100E80008083808181608083E0E2F1E08081816005
:100E90008083EAE7F0E080818460808380818260E3
:100EA00080838081816080838081806880831092CC
:100EB000C1000895893009F448C088F4843051F1A4
:100EC00038F48230A1F110F5813009F067C02CC0F0
:100ED000873089F1A0F5853009F060C021C08D30E0
:100EE00009F445C020F48B30C1F1E8F532C08031FF
:100EF00009F447C020F48E3009F050C03CC0813165
:100F000009F443C0823109F049C043C08091800098
:100F10008F7703C0809180008F7D8093800008953B
:100F200080918000877FF9CF84B58F7702C084B528
:100F30008F7D84BD08958091B0008F7703C080912C
:100F4000B0008F7D8093B0000895809190008F77DE
:100F500007C0809190008F7D03C080919000877FB3
:100F60008093900008958091A0008F7707C08091B2
:100F7000A0008F7D03C08091A000877F8093A00098
:100F80000895809120018F7707C0809120018F7D87
:100F900003C080912001877F809320010895CF9323
:100FA000DF9390E0FC01EA5BFE4F4491FC01E459C1
:100FB000FE4F8491882341F190E0880F991FFC0136
:100FC000E455FE4F25913491D9018E569E4FFC0178
:100FD00085919491C82FD92F9FB7F8948C91611166
:100FE00006C0409584238C938881842308C0623096
:100FF00041F4242F209582238C938881842B88832D
:1010000002C0842B8C939FBFDF91CF9108950F93E3
:101010001F93CF93DF931F92CDB7DEB7282F30E019
:10102000F901E05EFE4F8491F901EA5BFE4F1491F5
:10103000F901E459FE4F04910023D1F0882321F0F7
:1010400069830E945A076981E02FF0E0EE0FFF1FCD
:10105000EE56FE4F85919491DC019FB7F8948C91E8
:10106000611103C01095812301C0812B8C939FBF18
:101070000F90DF91CF911F910F910895CF92DF9242
:10108000EF92FF920F931F93CF93DF936C01EB01CD
:101090007A01E60EF71E00E010E00BC06991D60160
:1010A000ED91FC910190F081E02DC6010995080FAA
:1010B000191FCE15DF0591F7C801DF91CF911F9160
:1010C0000F91FF90EF90DF90CF900895611571051B
:1010D00081F0DB010D900020E9F7AD01415051098D
:1010E000461B570BDC01ED91FC910280F381E02D52
:1010F000099480E090E008950C946608DC01ED917D
:10110000FC910190F081E02D09940F931F93CF93F0
:10111000DF93EC016DE00E947E088C016AE0CE0155
:101120000E947E089C01200F311FC901DF91CF91E1
:101130001F910F9108954F925F926F927F929F92AD
:10114000AF92BF92CF92DF92EF92FF920F931F93D5
:10115000CF93DF93CDB7DEB7A1970FB6F894DEBF7C
:101160000FBECDBF5C016A017B01922E19A281E006
:10117000821710F08AE0982E8E010F5D1F4F492CC8
:10118000512C612C712CC701B601A30192010E9460
:10119000E00B8C2D929E80191124015011098A3088
:1011A00014F4805D01C0895CF801808369017A01D3
:1011B000C114D104E104F10431F7B801C5010E9462
:1011C0006608A1960FB6F894DEBF0FBECDBFDF91C3
:1011D000CF911F910F91FF90EF90DF90CF90BF9034
:1011E000AF909F907F906F905F904F9008952115E2
:1011F000310541F4DC01ED91FC910190F081E02D8D
:10120000642F09940C949B089A01AB0160E070E094
:101210000C94F7080E94F8060E944901C0E3DAE046
:101220000E94BE012097E1F30E94300AF9CFFC0131
:1012300084859585FC01E05CFF4F20813181FC01B4
:10124000EE5BFF4F80819181281B390B2F73332771
:10125000C9010895FC0184859585FC01E05CFF4F80
:1012600040815181FC01EE5BFF4F208131814217AB
:10127000530741F00190F081E02DE80FF91F208124
:1012800030E002C02FEF3FEFC9010895FC018485D3
:101290009585FC01E05CFF4F40815181FC01EE5BD4
:1012A000FF4F208131814217530781F0A081B18126
:1012B000A80FB91F8C91208131812F5F3F4F2F7371
:1012C000332731832083282F30E002C02FEF3FEFF8
:1012D000C9010895FC0181A1882329F0A489B58959
:1012E0008C9186FFFBCF11A20895CF93DF93FC0171
:1012F00026853785D901A05CBF4F8D919C911197B0
:1013000001968F739927E901CE5BDF4F48815981A0
:1013100084179507D9F30D90BC91A02DA20FB31F90
:101320006C93A685B785A05CBF4F11969C938E9356
:10133000A689B7892C9181E090E0078C02C0880FC4
:10134000991F0A94E2F7282B2C9381E081A304884B
:10135000F589E02D80818064808381E090E0DF91D9
:10136000CF91089508951F920F920FB60F921124F6
:101370000BB60F922F933F934F938F939F93EF93BF
:10138000FF938091C00082FD1CC04091C6008091F7
:1013900030059091310501968F7399272091320580
:1013A000309133058217930771F0E0913005F09189
:1013B0003105E051FB4F4083909331058093300518
:1013C00002C08091C600FF91EF919F918F914F9144
:1013D0003F912F910F900BBE0F900FBE0F901F905B
:1013E000189508951F920F920FB60F9211240BB605
:1013F0000F922F933F934F938F939F93EF93FF936E
:101400008091C80082FD1CC04091CE008091A8044C
:101410009091A90401968F7399272091AA04309185
:10142000AB048217930771F0E091A804F091A9042E
:10143000E859FB4F40839093A9048093A80402C00D
:101440008091CE00FF91EF919F918F914F913F91AD
:101450002F910F900BBE0F900FBE0F901F901895FD
:1014600082E094E00E941709892B11F00E94B209D2
:1014700080EE93E00E941709892B11F00C94F1097A
:1014800008951F920F920FB60F9211240BB60F9270
:101490002F933F938F939F93EF93FF932091EC04AF
:1014A0003091ED048091EE049091EF0428173907F4
:1014B00031F48091C1008F7D8093C10014C0E09110
:1014C000EE04F091EF04E455FB4F20818091EE048F
:1014D0009091EF0401968F7399279093EF04809376
:1014E000EE042093C600FF91EF919F918F913F9161
:1014F0002F910F900BBE0F900FBE0F901F9018955D
:101500001F920F920FB60F9211240BB60F922F93CA
:101510003F938F939F93EF93FF93209164043091B7
:10152000650480916604909167042817390731F4A7
:101530008091C9008F7D8093C90014C0E09166043A
:10154000F0916704EC5DFB4F2081809166049091DF
:10155000670401968F7399279093670480936604BC
:101560002093CE00FF91EF919F918F913F912F910A
:101570000F900BBE0F900FBE0F901F901895CF923B
:10158000DF92EF92FF92CF93DF93EC016A017B0130
:10159000411581EE580761057105F9F0EC89FD8967
:1015A00081E090E008A002C0880F991F0A94E2F73A
:1015B000808360E079E08DE390E0A70196010E94CE
:1015C000E00B21503109410951095695479537954E
:1015D0002795211580E1380798F0EC89FD89108264
:1015E00060E874E88EE190E0A70196010E94E00BAC
:1015F000215031094109510956954795379527954D
:10160000E889F9893083EA89FB89208319A2EE8968
:10161000FF89408181E090E09C010C8C02C0220F88
:10162000331F0A94E2F7422B4083EE89FF89408101
:101630009C010D8C02C0220F331F0A94E2F7422B4B
:101640004083EE89FF8940819C010E8C02C0220FED
:10165000331F0A94E2F7422B4083EE89FF892081F1
:101660000F8C02C0880F991F0A94E2F7809582239D
:101670008083DF91CF91FF90EF90DF90CF9008951E
:10168000109205041092040488EE93E0A0E0B0E00C
:101690008093060490930704A0930804B093090470
:1016A00020E332E0309303042093020440EF54E03F
:1016B00050930F0440930E044CEA54E050931104ED
:1016C0004093100445EC50E05093130440931204EF
:1016D00044EC50E0509315044093140440EC50E067
:1016E000509317044093160441EC50E050931904B2
:1016F0004093180442EC50E050931B0440931A04AA
:1017000046EC50E050931D0440931C04E4E0E09349
:101710001E0473E070931F0467E06093200455E09B
:101720005093210441E0409322041092E30310926D
:10173000E2038093E4039093E503A093E603B09360
:10174000E7033093E1032093E00388E694E090936D
:10175000ED038093EC0384E294E09093EF03809395
:10176000EE038DEC90E09093F1038093F0038CEC0A
:1017700090E09093F3038093F20388EC90E09093D1
:10178000F5038093F40389EC90E09093F703809342
:10179000F6038AEC90E09093F9038093F8038EECC3
:1017A00090E09093FB038093FA03E093FC03709323
:1017B000FD036093FE035093FF03409300040895DC
:1017C000A1E21A2EAA1BBB1BFD010DC0AA1FBB1F45
:1017D000EE1FFF1FA217B307E407F50720F0A21BB7
:1017E000B30BE40BF50B661F771F881F991F1A9424
:1017F00069F760957095809590959B01AC01BD014E
:10180000CF0108950790F691E02D0994FB01DC01CA
:1018100002C001900D9241505040D8F70895F894BD
:02182000FFCFF8
:101822005478446F6E653A20004572726F723A20A6
:10183200000000000103020F0F0F0F0F0E0E0E0D1E
:101842000D0C0C0B0A090807060402000000000038
:0C18520075093E08170946092A096A09B1
:00000001FF
